:02000004F90001
:10000000971100009381011F138101421715000011
:100010001305C58B971500009385458B1386C18109
:1000200063FCC5008322050023A05500130545008D
:1000300093854500E3E8C5FE1385C1819385018260
:100040006378B5002320050013054500E36CB5FE79
:10005000EF000001EF0080796F0000006780000072
:10006000130101FF23248100232021011714000024
:100070001304C48517190000130949853309894001
:10008000232611002322910013592940630E0900F1
:100090009304000083270400938414001304440095
:1000A000E7800700E31899FE171400001304048288
:1000B0001719000013098981330989401359294010
:1000C000630E090093040000832704009384140046
:1000D00013044400E7800700E31899FE8320C10061
:1000E000032481008324410003290100130101013D
:1000F0006780000093952500B385A50023A0C50067
:1001000067800000939575003385A50093555600D0
:10011000939525003305B500B72500003305B500DC
:1001200093071000B397C700638A060003260500F3
:10013000B3E7C7002320F500678000000326050011
:1001400093C7F7FFB3F7C7002320F50067800000CF
:100150009395C500B385A50037052000B385A5009C
:1001600023A0C500678000009395C500B385A50056
:100170003705200013054500B385A50003A505003C
:10018000678000009395C500B385A5003705200062
:1001900013054500B385A50023A0C50067800000B6
:1001A00003254500135505011375F50F6780000001
:1001B000032545001355850167800000130101FFE9
:1001C000232611002324810023229100130405001B
:1001D0009384050013050400EFF09FFCE30C05FE7B
:1001E000232094008320C100032481008324410044
:1001F0001301010167800000130101FF2326110094
:10020000232481001304050013050400EFF05FFAB6
:10021000E30C05FE032504001375F50F8320C100D0
:1002200003248100130101016780000083A7C5003A
:100230002324F50083A705009387F7FF03A7450054
:1002400013178700B3E7E70003A78500131707011B
:10025000B3E7E7002326F50067800000032545008B
:10026000678000002322B50067800000130101FFB2
:1002700023261100232481002322910093040500EA
:1002800013840500EFF09FFD9375D50F1314140030
:100290001374F40FB3E5850013850400EFF09FFCA1
:1002A0008320C10003248100832441001301010144
:1002B00067800000130101FF232611002324810021
:1002C00023229100930405001304C0016F008002F3
:1002D000B3D7840013F7F700B71700F99387878C1B
:1002E000B387E70083C50700370501F8EFF01FED7E
:1002F0001304C4FFE35E04FC8320C10003248100D7
:10030000832441001301010167800000130101FFF4
:100310002326110023248100232291009304050049
:100320001304C0016F008002B3D7840013F7F700F5
:10033000B71700F99387C78DB387E70083C5070018
:10034000370501F8EFF09FE71304C4FFE35E04FCF8
:100350008320C10003248100832441001301010193
:1003600067800000130101FF232611009375F50F2C
:10037000370501F8EFF09FE48320C100130101016C
:1003800067800000130101FF232611002324810050
:100390001304050083450400638A05001304140058
:1003A000370501F8EFF09FE16FF0DFFE8320C10019
:1003B000032481001301010167800000130101FD86
:1003C0002326110223248102232291029304050093
:1003D00063460500130401006F00C0021305D0023C
:1003E000EFF05FF8B30490406FF0DFFE1307A0005A
:1003F000B3E7E402938707032300F400B3C4E402E5
:1004000013041400E39404FE93070100E300F4FED8
:100410006F0000011304F4FF03450400EFF09FF4A4
:1004200093070100E318F4FE8320C1020324810234
:10043000832441021301010367800000130101FFBF
:1004400023261100130700009307700063C0E70222
:1004500093162700930700FFB397D700B377F500F3
:1004600063860700130717006FF01FFEEFF01FEA07
:100470008320C1001301010167800000130101FF07
:1004800023261100130700009307700063C0E702E2
:1004900093162700930700FFB397D700B377F500B3
:1004A00063860700130717006FF01FFEEFF09FE051
:1004B0008320C1001301010167800000130101FCCA
:1004C000232E1100232C8100232A91009304050080
:1004D0002322B1022324C1022326D1022328E102D0
:1004E000232AF102232C0103232E11039307410237
:1004F0002326F100130400006F00C0018327C10010
:10050000138747002326E10003A50700EFF09FE5CE
:1005100013041400B387840003C507006302050CAD
:10052000930750026306F506EFF0DFE36FF05FFE1E
:100530008327C100138747002326E10003A5070096
:10054000EFF05FE46FF0DFFC8327C1001387470003
:100550002326E10003A50700EFF05FE66FF05FFBE5
:100560008327C100138747002326E10003A5070066
:10057000EFF0DFF06FF0DFF98327C100138747004A
:100580002326E10003A50700EFF05FEB6FF05FF8B3
:1005900013041400B387840083C70700E38A07F6B7
:1005A00013073006E38CE7F413073007E382E7F81C
:1005B00013074006E38AE7F813078005E382E7FAAA
:1005C00013078007E38AE7FA13076006E392E7FC64
:1005D000371500F91305058FEFF0DFDA6FF05FF3E1
:1005E0008320C101032481018324410113010104FB
:1005F00067800000130101FE232E11009307800085
:100600002320F10023220100232401009307B006D8
:100610002326F10093050100370501F8EFF01FC113
:1006200093051000370501F8EFF05FC413060000D2
:10063000930500003705C0F8EFF09FB19306100056
:1006400013061000930500003705C0F8EFF09FABCC
:1006500013061000930510003705C0F8EFF09FA9AE
:10066000B71700F99387878373905730B717000047
:100670009387078073A04730B72700009387878050
:10068000739007308320C1011301010267800000CD
:10069000130101FF23261100370501F8EFF01FBCFD
:1006A0001375051063040504371500F91305C59388
:1006B000EFF0DFE0370501F8EFF05FBA9375E50F73
:1006C000370501F8EFF01FBA370501F8EFF01FB951
:1006D0009365150093F5F50F370501F8EFF09FB816
:1006E0008320C1001301010167800000370501F874
:1006F000EFF0DFB613750520E30405FE371500F9AA
:1007000013058596EFF09FDB370501F8EFF01FB575
:100710009375D50F370501F8EFF0DFB4370501F811
:10072000EFF09FAD93050500370501F8EFF01FA925
:10073000370501F8EFF09FB29365250093F5F50FAB
:10074000370501F8EFF01FB26FF09FF9130101FFB9
:1007500023261100371500F913058599EFF01FD6F0
:100760006F000000130101FF2326110023248100E4
:10077000930500003705C0F8EFF01F9F1304050034
:100780006304050293071000631EF400EFF05FF0AE
:1007900013060400930500003705C0F8EFF09F9E94
:1007A0006FF01FFDEFF09FFA8320C100032481004A
:1007B0001301010167800000130101FF23261100CE
:1007C000F327203463D2070213F7F7009307B00032
:1007D000631AF700EFF01FF98320C1001301010134
:1007E00067800000EFF09FF6EFF05FF6130101FF66
:1007F00023261100EFF01FE0371500F91305C59A05
:10080000EFF0DFCB371500F91305859CEFF01FCB18
:100810006F008001370501F8EFF01F9E930505007A
:10082000370501F8EFF09F99370501F8EFF05F9871
:10083000E30C05FE6FF01FFE130101FC23201100E5
:100840002322510023246100232671002328A100C4
:10085000232AB100232CC100232ED1002320E10242
:100860002322F10223240103232611032328C10399
:10087000232AD103232CE103232EF103EFF0DFF32E
:100880008320010083224100032381008323C100D0
:100890000325010183254101032681018326C1012E
:1008A0000327010283274102032881028328C10212
:1008B000032E0103832E4103032F8103832FC103E2
:0808C000130101047300203054
:1008C800303132333435363738394142434445467E
:1008D8000000000030313233343536373839616240
:1008E80063646566000000003C466C6F6174696E65
:1008F8006720706F696E74207072696E74696E67B4
:10090800206E6F7420656E61626C652E20506C6578
:1009180061736520456E61626C652069742061743D
:10092800206273702E682066697273742E2E2E3EB4
:10093800000000000A756172742030207478206607
:1009480069666F20656D70747920696E746572725E
:1009580075707420726F7574696E65200D0A0000D9
:100968000A756172742030207278206669666F207B
:100978006E6F7420656D70747920696E746572721B
:1009880075707420726F7574696E65200D0A0000A9
:100998000D0A2A2A2A204352415348202A2A2A0D7E
:1009A8000A00000075617274203020696E746572E7
:1009B800727570742064656D6F2021200D0A000027
:1009C800737461727420747970696E67206F6E2019
:1009D8007465726D696E616C20746F20696E7465E0
:1009E800727275707420756172742E2E2E200D0A25
:1009F80000000000000000000000000000000000EF
:020A08000000EC
:04000005F9000000FE
:00000001FF
