:02000004F90001
:1000000097110000938101E9138101421705000057
:1000100013054554970500009385C5531386C18188
:1000200063FCC5008322050023A05500130545008D
:1000300093854500E3E8C5FE1385C1819385018260
:100040006378B5002320050013054500E36CB5FE79
:10005000EF000001EF00000A6F0000006780000061
:10006000130101FF23248100232021011704000034
:100070001304444E170900001309C94D3309894080
:10008000232611002322910013592940630E0900F1
:100090009304000083270400938414001304440095
:1000A000E7800700E31899FE170400001304844A50
:1000B000170900001309094A3309894013592940D7
:1000C000630E090093040000832704009384140046
:1000D00013044400E7800700E31899FE8320C10061
:1000E000032481008324410003290100130101013D
:1000F00067800000370500F9130101FF1305455F14
:1001000023261100EF00400A370500F9130585602A
:10011000EF008009B75701F81307E00023A4E700B8
:100120003797980023A20700B75501F893072003DB
:1001300037C5B0F81307076883A6450093C6E600E5
:1001400023A2D500032685FF3306E600832685FF1C
:10015000B306D640E3DC06FE9387F7FFE39E07FC79
:10016000370500F913054562EF000004370500F973
:1001700013050564EF004003370500F91305056713
:10018000EF008002EF00C0246F000000370701F885
:100190008327470093D7070193F7F70FE38A07FEFA
:1001A0002320A70067800000130101F823263105F2
:1001B00023244105232AF106B70900F993074106D4
:1001C000370A00F923282105232251052320610540
:1001D000232E7103232C8103232E1104232C81044D
:1001E000232A9104232A9103930A05002322B106AE
:1001F0002324C1062326D1062328E106232C010748
:10020000232E11072326F10013090000130B5002BF
:10021000930B3006370C00F99389C959130A0A5B0E
:10022000B3872A0103C50700631C05028320C105AB
:100230000324810583244105032901058329C10481
:10024000032A8104832A4104032B0104832BC10365
:10025000032C8103832C41031301010867800000F4
:10026000631E6503130730079306400613068005D7
:10027000930580071305600613091900B3872A0147
:1002800083C70700638E0702639E77018327C1003F
:1002900003C50700138747002326E100EFF01FEF97
:1002A0006F0000026398E7028327C10003A40700E0
:1002B000138747002326E100034504006316050069
:1002C000130919006FF0DFF513041400EFF01FECB1
:1002D0006FF09FFE6392D7068327C10083A40700B7
:1002E000138747002326E10063D804001305D002DA
:1002F000EFF0DFE9B304904013040101930C040014
:100300001307A000639E0400630C94011304F4FF20
:1003100003450400EFF09FE7E31A94FF6FF05FFAE4
:10032000B3E7E4021304140093870703A30FF4FE5A
:10033000B3C4E4026FF01FFD639EC7028327C100B0
:100340001304C0019304C0FF83AC07001387470068
:100350002326E100B3D78C0093F7F700B307FA0028
:1003600003C507001304C4FFEFF05FE2E31494FE3B
:100370006FF01FF5639EB7028327C1001304C0010D
:100380009304C0FF83AC0700138747002326E100D6
:10039000B3D78C0093F7F700B387F90003C50700C4
:1003A0001304C4FFEFF09FDEE31494FE6FF05FF1DF
:1003B000E394A7EC13040C556F00C0001304140061
:1003C000EFF0DFDC03450400E31A05FE6FF05FEF9A
:1003D000B707E0F823A00700B726C0F803A7060078
:1003E000B71700003367F70023A0E60013071000DB
:1003F000B706C0F823A8E602B75601F823A0E60224
:10040000370700F91307074C73105730938707809D
:1004100073A04730B7270000938787807390073019
:1004200067800000370500F9130101FF1305455CE3
:1004300023261100EFF05FD76F000000130101FFCA
:10044000232481002322910023202101232611004F
:100450003704E0F89304C000370900F9832744000B
:10046000639E07008320C100032481008324410090
:10047000032901001301010167800000639A9700BE
:100480001305895DEFF05FD2232294006FF01FFD0A
:10049000EFF05FF9130101FF23261100F327203449
:1004A00063DE070013F7F7009307B0006318F70047
:1004B0008320C100130101016FF05FF8EFF09FF698
:1004C000130101FC23201100232251002324610089
:1004D000232671002328A100232AB100232CC10068
:1004E000232ED1002320E1022322F1022324010341
:1004F000232611032328C103232AD103232CE1033C
:10050000232EF103EFF01FF9832001008322410025
:10051000032381008323C1000325010183254101B9
:10052000032681018326C10103270102832741029B
:10053000032881028328C102032E0103832E410375
:10054000032F8103832FC1031301010473002030A3
:100550003C466C6F6174696E6720706F696E7420C1
:100560007072696E74696E67206E6F7420656E615B
:10057000626C652E20506C6561736520456E61620A
:100580006C65206974206174206273702E68206627
:10059000697273742E2E2E3E00000000303132330B
:1005A00034353637383961626364656600000000AF
:1005B0003031323334353637383941424344454699
:1005C000000000000D0A2A2A2A20435241534820E5
:1005D0002A2A2A0D0A0000006770696F20302069FE
:1005E0006E7465727275707420726F7574696E6561
:1005F000200D0A006770696F20302064656D6F20E0
:1006000021200D0A000000006F6E626F617264208D
:100610004C45447320626C696E6B696E67200D0AED
:10062000000000006770696F203020696E74657289
:10063000727570742064656D6F2021200D0A0000B2
:100640005469363020707265737320616E64207255
:10065000656C65617365206F6E626F6172642062A4
:100660007574746F6E20737736200D0A00000000D9
:100670005431323020707265737320616E64207261
:10068000656C65617365206F6E626F617264206274
:100690007574746F6E20737737200D0A00000000A8
:0A06A0000000000000000000000050
:04000005F9000000FE
:00000001FF
